{
  "contractName": "TeaProduct",
  "abi": [
    {
      "inputs": [
        {
          "internalType": "string",
          "name": "",
          "type": "string"
        }
      ],
      "name": "products",
      "outputs": [
        {
          "internalType": "string",
          "name": "batchId",
          "type": "string"
        },
        {
          "internalType": "string",
          "name": "supplierName",
          "type": "string"
        },
        {
          "internalType": "uint256",
          "name": "timestamp",
          "type": "uint256"
        }
      ],
      "stateMutability": "view",
      "type": "function",
      "constant": true
    },
    {
      "inputs": [
        {
          "internalType": "string",
          "name": "_batchId",
          "type": "string"
        },
        {
          "internalType": "string",
          "name": "_supplierName",
          "type": "string"
        }
      ],
      "name": "addSensitiveData",
      "outputs": [],
      "stateMutability": "nonpayable",
      "type": "function"
    },
    {
      "inputs": [
        {
          "internalType": "string",
          "name": "_batchId",
          "type": "string"
        }
      ],
      "name": "getProduct",
      "outputs": [
        {
          "internalType": "string",
          "name": "",
          "type": "string"
        },
        {
          "internalType": "string",
          "name": "",
          "type": "string"
        },
        {
          "internalType": "uint256",
          "name": "",
          "type": "uint256"
        }
      ],
      "stateMutability": "view",
      "type": "function",
      "constant": true
    }
  ],
  "bytecode": "0x608060405234801561001057600080fd5b5061084e806100206000396000f3fe608060405234801561001057600080fd5b50600436106100415760003560e01c80630186a4231461004657806368111cce14610078578063f1820409146100aa575b600080fd5b610060600480360381019061005b9190610521565b6100c6565b60405161006f9392919061065e565b60405180910390f35b610092600480360381019061008d9190610521565b610216565b6040516100a19392919061065e565b60405180910390f35b6100c460048036038101906100bf9190610562565b610392565b005b6000818051602081018201805184825260208301602085012081835280955050505050506000915090508060000180546100ff90610777565b80601f016020809104026020016040519081016040528092919081815260200182805461012b90610777565b80156101785780601f1061014d57610100808354040283529160200191610178565b820191906000526020600020905b81548152906001019060200180831161015b57829003601f168201915b50505050509080600101805461018d90610777565b80601f01602080910402602001604051908101604052809291908181526020018280546101b990610777565b80156102065780601f106101db57610100808354040283529160200191610206565b820191906000526020600020905b8154815290600101906020018083116101e957829003601f168201915b5050505050908060020154905083565b60608060008060008560405161022c9190610647565b908152602001604051809103902060405180606001604052908160008201805461025590610777565b80601f016020809104026020016040519081016040528092919081815260200182805461028190610777565b80156102ce5780601f106102a3576101008083540402835291602001916102ce565b820191906000526020600020905b8154815290600101906020018083116102b157829003601f168201915b505050505081526020016001820180546102e790610777565b80601f016020809104026020016040519081016040528092919081815260200182805461031390610777565b80156103605780601f1061033557610100808354040283529160200191610360565b820191906000526020600020905b81548152906001019060200180831161034357829003601f168201915b505050505081526020016002820154815250509050806000015181602001518260400151935093509350509193909250565b6040518060600160405280838152602001828152602001428152506000836040516103bd9190610647565b908152602001604051809103902060008201518160000190805190602001906103e7929190610416565b506020820151816001019080519060200190610404929190610416565b50604082015181600201559050505050565b82805461042290610777565b90600052602060002090601f016020900481019282610444576000855561048b565b82601f1061045d57805160ff191683800117855561048b565b8280016001018555821561048b579182015b8281111561048a57825182559160200191906001019061046f565b5b509050610498919061049c565b5090565b5b808211156104b557600081600090555060010161049d565b5090565b60006104cc6104c7846106d4565b6106a3565b9050828152602081018484840111156104e457600080fd5b6104ef848285610735565b509392505050565b600082601f83011261050857600080fd5b81356105188482602086016104b9565b91505092915050565b60006020828403121561053357600080fd5b600082013567ffffffffffffffff81111561054d57600080fd5b610559848285016104f7565b91505092915050565b6000806040838503121561057557600080fd5b600083013567ffffffffffffffff81111561058f57600080fd5b61059b858286016104f7565b925050602083013567ffffffffffffffff8111156105b857600080fd5b6105c4858286016104f7565b9150509250929050565b60006105d982610704565b6105e3818561070f565b93506105f3818560208601610744565b6105fc81610807565b840191505092915050565b600061061282610704565b61061c8185610720565b935061062c818560208601610744565b80840191505092915050565b6106418161072b565b82525050565b60006106538284610607565b915081905092915050565b6000606082019050818103600083015261067881866105ce565b9050818103602083015261068c81856105ce565b905061069b6040830184610638565b949350505050565b6000604051905081810181811067ffffffffffffffff821117156106ca576106c96107d8565b5b8060405250919050565b600067ffffffffffffffff8211156106ef576106ee6107d8565b5b601f19601f8301169050602081019050919050565b600081519050919050565b600082825260208201905092915050565b600081905092915050565b6000819050919050565b82818337600083830152505050565b60005b83811015610762578082015181840152602081019050610747565b83811115610771576000848401525b50505050565b6000600282049050600182168061078f57607f821691505b602082108114156107a3576107a26107a9565b5b50919050565b7f4e487b7100000000000000000000000000000000000000000000000000000000600052602260045260246000fd5b7f4e487b7100000000000000000000000000000000000000000000000000000000600052604160045260246000fd5b6000601f19601f830116905091905056fea26469706673582212201bdb4be851bab2db0d85c7133c56323993252abdc3251cba5c8757b33458620464736f6c63430008000033",
  "immutableReferences": {},
  "source": "// SPDX-License-Identifier: MIT\r\npragma solidity ^0.8.0;\r\n\r\ncontract TeaProduct {\r\n    struct Product {\r\n        string batchId;\r\n        string supplierName;\r\n        uint256 timestamp;\r\n    }\r\n\r\n    mapping(string => Product) public products;\r\n\r\n    // Function to add sensitive data to the blockchain\r\n    function addSensitiveData(\r\n        string memory _batchId,\r\n        string memory _supplierName\r\n    ) public {\r\n        products[_batchId] = Product(_batchId, _supplierName, block.timestamp);\r\n    }\r\n\r\n    // Function to retrieve product details\r\n    function getProduct(string memory _batchId)\r\n        public\r\n        view\r\n        returns (string memory, string memory, uint256)\r\n    {\r\n        Product memory product = products[_batchId];\r\n        return (product.batchId, product.supplierName, product.timestamp);\r\n    }\r\n}\r\n",
  "sourcePath": "D:\\DPP\\contracts\\TeaProduct.sol",
  "compiler": {
    "name": "solc",
    "version": "0.8.0+commit.c7dfd78e.Emscripten.clang"
  },
  "schemaVersion": "3.4.16",
  "updatedAt": "2024-12-03T13:09:47.674Z",
  "networkType": "ethereum",
  "devdoc": {
    "kind": "dev",
    "methods": {},
    "version": 1
  },
  "userdoc": {
    "kind": "user",
    "methods": {},
    "version": 1
  }
}